:020000040800F2
:100000005809002065450008C5190008C7190008EF
:10001000CB190008CF190008D31900080000000010
:10002000000000000000000000000000D7190008D8
:10003000D919000800000000DB190008DD190008CC
:100040007F4500087F4500087F4500087F45000880
:100050007F4500087F4500087F4500087F45000870
:100060007F4500087F4500087F4500087F45000860
:100070007F4500087F4500087F4500087F45000850
:100080007F4500087F4500087F4500087F45000840
:100090007F4500087F4500087F4500087F45000830
:1000A0007F450008BB1D00087F4500087F4500080C
:1000B0002B1C00082F3B00087F4500087F450008E7
:1000C0007F4500087F4500087F4500087F45000800
:1000D0007F4500089D3E0008E93000087F45000884
:1000E0007F4500087F4500087F4500087F450008E0
:1000F0007F4500087F4500087F4500087F450008D0
:100100007F4500087F4500087F4500087F450008BF
:100110007F4500087F4500087F4500087F450008AF
:100120007F4500087F4500087F4500087F4500089F
:1001300000F002F800F05AF80AA090E8000C82449F
:100140008344AAF10107DA4501D100F04FF8AFF27C
:10015000090EBAE80F0013F0010F18BFFB1A43F0A5
:100160000103184734800000548000000A444FF017
:10017000000C10F8013B13F0070408BF10F8014B06
:100180001D1108BF10F8015B641E05D010F8016B4B
:10019000641E01F8016BF9D113F0080F1EBF10F8AF
:1001A000014BAD1C0C1B09D16D1E58BF01F801CBD2
:1001B000FAD505E014F8016B01F8016B6D1EF9D555
:1001C0009142D6D37047000000230024002500266A
:1001D000103A28BF78C1FBD8520728BF30C148BFAA
:1001E0000B6070471FB51FBD10B510BD06F0C2F8FB
:1001F0001146FFF7F7FF01F0BDF906F0E0F803B490
:10020000FFF7F2FF03BC03F0EFFD00002DE9F04F14
:1002100087B00024FB484078000200B2F949897891
:1002200040EA0109FCB909F10300C1B2F54803F045
:1002300070FE00B2F4490880F24909F10400095C3B
:10024000F04A401E105C41EA002000B2EF490880ED
:10025000ED48B0F90000B1F90010884202D1601CED
:10026000C4B200E00024012C07D1E648007804283D
:1002700002D1601CC4B200E00024022C7DD1E14810
:100280004079E049097940EA012000B2E04908805C
:10029000B1F9001040F2DC52501A07F022F807467C
:1002A000DC4ADD4B06F0ACFD8246DC4ADC4B07F055
:1002B0007FF805460022DB4B06F05EFEDA4A03C2F9
:1002C000D94903C906F0F6FCD84A03C200226307E5
:1002D000D64903C907F06CF80746D54AD54B07F055
:1002E00067F80546D44AD54B07F062F88246D44AEF
:1002F000D44B07F091F9CDE9020106F029FD002267
:10030000D14BCDE9040107F079FAC84A03C20022B3
:100310001346C64903C907F049F91BD80022CB4B45
:10032000C24903C907F008F814D8C048D0E9001042
:10033000C74AC2E900101046D0E90010C54AC2E918
:100340000010C348D0E90010C34AC2E900100120E0
:10035000C2490870AB48C079AA49897940EA0120AE
:1003600000B2BF4908800846B0F9000006F0B9FFA6
:100370000022BC4BCDE9040100E063E007F03EFA47
:100380008246B94AB94B06F03BFD0546A34AA44B49
:1003900007F00EF807460022A24B06F0EDFDB44A26
:1003A00003C2B34903C906F085FCB24A03C2B1488F
:1003B0000CC800204FF0804106F0FAFF0746AE4A15
:1003C000AE4B06F0F5FF0546AD4AAE4B06F0F0FF2A
:1003D0008246AD4AAD4B07F01FF90022AC4BCDE988
:1003E000000107F00BFACDE9020106F0B1FC4FF075
:1003F0006632A84BCDE9040107F000FA9D4A03C21A
:10040000002213469B4903C907F0D0F815D80022F3
:100410008E4B984903C906F08FFF0ED8954903C942
:100420009D4A03C29C4903C99C4A03C29A4903C915
:100430009B4A03C201209B49087001209A49087019
:100440009A49087007B0BDE8F08F2DE9FC5F0220E3
:100450009749087097490870012097490870974993
:10046000087097489749086007209749087003204B
:1004700096490870964908700720964908703C20F4
:100480009549086002F056F802F03BFA03F09AF83A
:100490001E225C49002003F02BF99048007806F0FA
:1004A00037FF04460D468748006807F091FA024678
:1004B0000B46CDE900010020894906F05DFD80462C
:1004C00000224FF0804306F073FF064622462B467B
:1004D00006F06EFF824606F0D7FE82490860824829
:1004E000007806F015FF06460F46764801687F48FB
:1004F00007F0FCFA019007F06BFA824600224FF0F9
:10050000804306F055FF804632463B4606F050FFDA
:10051000044606F0B9FE76490860724800687549DD
:10052000B1FBF0F074490880714800687149B1FB73
:10053000F0F0724908800621714802F06EFEFFF764
:1005400065FE40F2BB2140F2775001F012FE40F20E
:10055000BB2140F2775001F04BFE0020BDE8FC9F2C
:100560002DE9FC4167480078012847D166480078AA
:100570000028FAD16349087064480078012808D13E
:1005800063480078012804D10821624803F0A6FCE2
:1005900009E05E48007810B15D48007818B908217C
:1005A0005D4803F09BFC5A480078012827D10020C1
:1005B000574908703B480078012808D10020574966
:1005C00008603648D0E90010354AC2E900103348C7
:1005D00031490CC803C907F011F921F00041044664
:1005E0004F4A504B06F0E2FF0AD82C482A490CC863
:1005F00003C907F003F94C4A03C29BE0BDE156E191
:1006000094E00000FA01002064010020660100204F
:100610009801002066BD18CAF925B140F1D4C8532D
:10062000FB2109400094D140A0010020B801002026
:10063000D0B359F5B9A24C408195438B6C2B5E40E9
:1006400091CFAF56D36CD14000E8554000004340F5
:100650008801002048000020580000209900002058
:10066000A801002000407F40C1A8A44E60E4A04043
:10067000B0010020C0010020931804560EAE714056
:100680007C61325530786B40ECFB2E848D53FF40FB
:1006900080D4A94066EE5840900100204000002020
:1006A00050000020980000200100002002000020DF
:1006B0003C0000203D00002000000020030000203E
:1006C0006666E63F7400002007000020040000205A
:1006D00005000020060000206C00002068000020BB
:1006E0000080764060000020690000200000B443D4
:1006F0006400002000A24A049A0000209C00002010
:100700009E0000207B0100207D0100207F01002051
:1007100080010020B2000020C2000020F000002074
:10072000FCA9F1D24D62603F180000200020FE4A73
:1007300010605060FD4AFE4BFB4903C906F038FECD
:100740000646FC4AFC4B06F017FC044606F06CFD1E
:10075000FA49086008460068E8B90021F84805F041
:1007600043F90021F74805F03FF90220F6490870E7
:100770000020F64908600120F54908700020F5497D
:100780000860F548D0E90010F44AC2E900100020E2
:10079000F34908708BE0E9480068002840DD00213B
:1007A000E74805F021F90021E64805F01DF9E34886
:1007B0000068E6490860EB48C07820F0200020304F
:1007C000E849C8700846C07820F080008030C870C2
:1007D00008460168009100798DF804000320019A11
:1007E00001F02EFE0120E0490860D749087040F270
:1007F000BB22002140F2775003F01AF90020D449BF
:1008000008700121CE4805F0EFF80121D74805F026
:10081000EBF80020CF4908600120D149087046E07C
:10082000C6480068002842DA0021C54805F0DCF817
:100830000021C44805F0D8F8C0490868002801DB49
:10084000014600E04142C14A1160C648C07820F02C
:1008500020002030C349C8700846C07820F08000CE
:100860008030C87008460168009100798DF8040056
:100870000320019A01F0E4FD40F2BB22002140F286
:10088000775003F0D5F80020B7490860AE490870EA
:10089000AF490870AF4908600120B14908700121D3
:1008A000A74805F0A1F80121B04805F09DF8B0482F
:1008B0000078012861D10020AD49087000214FF077
:1008C000804005F091F8AB480078012806D100205F
:1008D000A9490860A94903C9A94A03C2A748A94967
:1008E0000CC803C906F08AFF21F000410446A64A5D
:1008F000A64B06F05BFE08D8A048A2490CC803C965
:1009000006F07CFFA24A03C203E00021A04A116066
:100910005160864A864B9E4903C906F049FD06464A
:10092000844A854B06F028FB044606F07DFC994975
:1009300008600846006808BB02209749087000213B
:10094000964805F051F800214FF0804005F04CF832
:100950004FF0804004F018FC00209149086086495F
:1009600008600120834908708648D0E90010834A56
:10097000C2E9001000208B49087097E085480068A4
:10098000002845DD0021854805F02EF800214FF0B4
:10099000804005F029F84FF0804004F0F5FB7D48D9
:1009A00000687F4908608048C07820F0200020302F
:1009B0007D49C8700846C07820F080008030C8703B
:1009C00008460168009100798DF804000320019A1F
:1009D00001F0AAFC01206449083908606E490870DA
:1009E00040F2BB22002140F2775003F058F800207B
:1009F000604908706049086001206A490870012157
:100A0000664804F0F1FF0121584804F0EDFF4DE085
:100A100060480068002849DA0021604804F0E4FFDB
:100A200000214FF0804004F0DFFF4FF0804004F0E1
:100A3000ABFB58490868002801DB014600E0414251
:100A4000574A11605848C07820F02000203056499D
:100A5000C8700846C07820F080008030C870084612
:100A60000168009100798DF804000320019A01F0DB
:100A70005BFC00203C490839086040F2BB220021A1
:100A800040F2775003F00BF80020434908703949D1
:100A900008703949086001204249087001213F4827
:100AA00004F0A2FF0121314804F09EFF0020BDE8C0
:100AB000FC812DE9F04F87B04FF0000900240020A1
:100AC00005900490C02039490870822048700020A9
:100AD00088702A480CC80020354906F091F905466F
:100AE0000E4626480CC80020314906F089F92A46EE
:100AF0003346CDE9020106F05BFC07462D4A2E4B3A
:100B000006F08AFD82462D4A2D4B06F035FA2D4A15
:100B100003C22C4903C905F08FFF00222A4BCDE9FF
:100B2000000106F045FC51E018000020ECF57ABD0C
:100B30005EAFD3406EDBB66DDBB6494030000020BF
:100B400000080040000400403C0000202C00002071
:100B500098000020F00000209001002040000020BC
:100B60000900002002010020AC012242002C0140BB
:100B70007F01002099000020F400002048000020A0
:100B80005800002088010020FCA9F1D24D62603F8E
:100B900010000020380000203D000020000C004024
:100BA000340000200A000020070100201802002065
:100BB00000E8554091CFAF56D36CD1406CB7B82107
:100BC0006AFFCA40880000200094D1408246FE4A55
:100BD000FE4B06F0D1F90746FD4AFE4B06F00EFE2D
:100BE00005460022FC4B06F017FDCDE9020106F098
:100BF0001BFB00B2F9490880F9480CC84FF0663079
:100C0000F84906F0FDF805460E46F5480CC84FF0C9
:100C10006630F44906F0F4F82A463346CDE902017D
:100C200006F0C6FB0746F04AF04B06F0F5FC82469C
:100C3000EF4AF04B06F0A0F9EF4A03C2EE4903C9B0
:100C400005F0FAFE82460022EC4B06F0B1FB0746A7
:100C5000DD4ADE4B06F090F9E94AEA4BCDE90201A4
:100C600006F0CCFD054606F0DFFA00B2E649088042
:100C7000E6480078012839D1E5480078012835D1C7
:100C80000B22E449002002F044FD0220DF490870F5
:100C9000DF490870E048C07820F020002030DE49AD
:100CA000C8700846C07820F08000C8700846016807
:100CB000029100798DF80C000320039A01F0C0FB2B
:100CC000D648C07820F020002030D449C8700846AB
:100CD000C07820F08000C870084601680291007951
:100CE0008DF80C000320039A01F01EFBBB4800881E
:100CF000000ACB490871B9480078CA49087008460B
:100D00000078C749487100208871C871BE480088C2
:100D1000000A0872BC480078C34908700846007889
:100D2000BF494872C1480088000A8872BF480078ED
:100D3000BF49087008460078B949C872BD480068C4
:100D400030B9BC48001D006810B90920087322E0C2
:100D5000B848006838B9B748001D0068012802D1BA
:100D6000AF49087317E0B3480068012807D1B148BC
:100D7000001D006818B90820A94908730BE0AD48A8
:100D80000068012807D1AB48001D0068012802D186
:100D90000020A3490873A848006838B9A64810384D
:100DA000006818B903209E49487322E0A2480068F1
:100DB000012808D1A04810380068012803D100207C
:100DC0009749487315E09C480068012807D19A4864
:100DD0001038006818B902209149487309E0964814
:100DE000006830B9944810380068012801D18C4956
:100DF00048739248007820B1012805D0022809D113
:100E000005E00120059006E00220059003E00020A7
:100E1000059000E000BF00BF8948007820B101289C
:100E200005D0022809D105E00120049006E0022047
:100E3000049003E00020049000E000BF00BFDDE963
:100E4000040100EB8100764988737E48007810B178
:100E50007D48007860B978480068012808D1764854
:100E600010380068012803D102206D49C87333E0AF
:100E700073480078022803D17048007802280CD00B
:100E80006D480068012808D16B48103800680128B7
:100E900003D103206249C8731EE069480078022824
:100EA00010D16648007802280CD1634800680128F8
:100EB00008D1614810380068012803D1042058493E
:100EC000C87309E05C48006818B15B4810380068D6
:100ED00010B905205249C8730C205149C8700F2120
:100EE0004F48401C03F015F800B2584908800846E6
:100EF0000088000A56490870084600784849087476
:100F000052480078534908700846007844494874AC
:100F1000C02051490870601CC4B24FF0010927E09D
:100F20003F4810F80900C02809D1DB204A4908557C
:100F3000601CC4B2DC200855601CC4B214E0384800
:100F400010F80900DB2808D143490855601CC4B2D9
:100F5000DD200855601CC4B206E0314810F80900D5
:100F60003D490855601CC4B209F1010000F0FF09B9
:100F7000B9F1120FD4DBC02037490855601CC1B24B
:100F8000354802F0ABFF07B0BDE8F08F2DE9FC5FFC
:100F900032480078012867D1002030490870304875
:100FA000007801287ED108212E4802F097FF1A48C8
:100FB000C07820F0200020301749C8700846C0785B
:100FC00020F08000803050E0F1D4C853FB2109406C
:100FD00066BD18CAF925B140007097402200002074
:100FE0004000002066EE5840ECFB2E84E984FE4071
:100FF000003BF550865AFE40800000200094D1400E
:101000003F355EBA890DA4402000002098000020E2
:1010100099000020DC0100200201002007010020CF
:1010200018020020280000202900002010010020C4
:101030000800002020812142300122423D00002092
:101040003C000020000000200300002024000020BD
:101050002600002027000020360200207901002011
:101060007A010020BA000020D6E0C8700846016866
:10107000009100798DF804000320019A01F0E0F955
:10108000FE48C07820F020002030FC49C870084697
:10109000C07820F080008030C87008460168009158
:1010A000007900E036E08DF804000320019A01F099
:1010B0003BF90020F2490870F2490860F2490870D3
:1010C000F249C1F8AC01F2490870F2490870F249DE
:1010D0000870F2480068012807D10121F04804F0A7
:1010E00083FC0020EF49087003E00021EC4804F085
:1010F0007BFCEA48001D0068012807D10121EA486D
:1011000004F072FC0020E949087003E00021E64881
:1011100004F06AFCE648007801287DD10020E4490B
:1011200008700821E34802F0D9FEDB480078012866
:10113000F3D1D84800780128EFD1DF4800680028B3
:101140005ADD0021D84804F04FFC0120D74908702F
:10115000DA480CC80020DA4905F052FE804689467C
:10116000D6480CC80020D64905F04AFE82464246C1
:101170004B4606F01DF90646D24AD34B06F04CFA10
:101180000446D24AD24B05F0F7FED24A03C2D149F7
:1011900003C905F051FC06460022CF4B06F008F9C2
:1011A0008246CE4ACE4B05F0E7FE8046CD4ACE4B76
:1011B00006F024FB04460022CC4B06F02DFACC4A64
:1011C00003C2CB4903C906F02FF800B2C949088011
:1011D0000846B0F90000C8490880B84903C9C74AA1
:1011E00003C2C7480068C74908600120AF490870BA
:1011F0000220A549087061E0AF48006800285DDA68
:101200000021A94804F0F0FB0120A8490870AB4870
:101210000CC80020AA4900E0A9E105F0F1FD06464E
:101220000F46A6480CC80020A54905F0E9FD8246F6
:1012300032463B4606F0BCF80446A24AA24B06F0F2
:10124000EBF98046A14AA24B05F096FEA14A03C2E3
:10125000A04903C905F0F0FB064600229E4B06F0AC
:10126000A7F880469D4A9E4B05F086FE82469D4A21
:101270009D4B06F0C3FA044600229C4B06F0CCF9C5
:101280009B4A03C29A4903C905F0CEFF00B29949AF
:1012900008800846B0F90000974908808748D0E9DF
:1012A0000010964AC2E90010954800689549086008
:1012B00001207E4908700220734908709248006836
:1012C00000285CDD0021764804F08EFB0120754982
:1012D00008708E480CC84FF066308D4905F090FDBF
:1012E00006460F4689480CC84FF06630884905F01D
:1012F00087FD804632463B4606F05AF80446854A4A
:10130000854B06F089F98246844A854B05F034FE08
:10131000844A03C2834903C905F08EFB804600223C
:10132000814B06F045F806466C4A6D4B05F024FEED
:1013300004467E4A7E4B06F061FA7E4A03C20022D2
:101340007D4B7C4903C906F033F8044605F06CFF79
:1013500000B27A4908800846B0F900007849088050
:101360006A4903C9774A03C2774800687749086029
:1013700001204C49087002204549087061E062482C
:10138000006800285DDA0021454804F02DFB0120AB
:10139000444908705D480CC84FF066305C4905F060
:1013A0002FFD8046894659480CC84FF06630584991
:1013B00005F026FD064642464B4605F0F9FF044679
:1013C000544A554B06F028F98246544A544B05F0CE
:1013D000D3FD544A03C2534903C905F02DFB064609
:1013E0000022514B05F0E4FF80463C4A3C4B05F09F
:1013F000C3FD04464D4A4E4B06F000FA4D4A03C267
:1014000000224D4B4B4903C905F0D2FF044605F0BD
:101410000BFF00B2494908800846B0F9000048496E
:1014200008803A48D0E90010464AC2E90010464810
:1014300000684649086001201A49087002201449D2
:101440000870042042490870002048700620887007
:101450000020C87028480088000A087126480078D3
:10146000487137480088000A887135480078C8718B
:1014700000200872092136486CE0000007010020B6
:101480007A010020A40122423D00002000002242F7
:101490003C000020000000200300002020812142A9
:1014A0000008004098000020000C00409900002037
:1014B0007E010020BA0000203800002048000020F3
:1014C00000E8554091CFAF56D36CD1406CB7B821EE
:1014D0006AFFCA40880000200094D140F1D4C8536C
:1014E000FB210940BAF770C9F925B1400070974057
:1014F0009000002098010020220000208801002098
:10150000F4000020340000203000002040000020C3
:1015100066EE5840ECFB2E84E984FE40003BF5501B
:10152000865AFE408000002000806640C2DD59BB24
:10153000EDAA39407800002000005940A8010020A1
:101540002000002090010020F00000202C0000204E
:10155000DC01002002F0DDFC00B2E449088008460E
:101560000088000AE2494872E0480078887200204A
:10157000BDE8FC9F1CB50024A14602F0CBFB4FF454
:10158000A06003F093FD4FF4E13002F03BFC4FF418
:10159000165001F05BFD01F0F9FC00F00DFD00F0CC
:1015A00082FD012241F61F41092002F0D7F9FEF722
:1015B0004CFF9AE1CF4800680A2806DDCE48007843
:1015C000052802DD0120CD490870CC4800780128AB
:1015D00045D10020C94908708146C949086035E0F5
:1015E000C5480078814500DB31E0C64810F80900A5
:1015F000C02806D1C248006818B90020C049086058
:1016000022E0C04810F80900C0280BD0BD4810F8EF
:101610000910BB4802680068401CB94B1860BA4802
:10162000815411E0B74810F80900C0280CD1B44823
:101630000068022808DDB2480078B449087000202C
:10164000AD49087002F04BFE09F10109C8E700BF7F
:101650001E21AC4804F02DFE0020A7490870FFF7BA
:1016600095FCAB480078012806D10020A8490870F5
:101670000E21A84802F032FCA7480078012804D1C6
:101680000020A5490870FFF714FAA4480078012843
:1016900006D0022807D0032806D004280CD107E082
:1016A000FEF75EFF09E008E0002002F070F804E0B9
:1016B000002002F0D3F800E000BF00BF9848007897
:1016C000012804D100209649087001F0C2FD954818
:1016D0000068022872D3002092490860924800688E
:1016E00000287BD191480078002877D100219048CC
:1016F00004F07AF902208D49087001208D490870A4
:1017000000208D49086000218C4A116051608C4A8C
:10171000106050608B480078012816D18A48C07844
:1017200020F0200020308849C8700846C07820F09A
:101730008000C87008460168009100798DF80400A7
:101740000320019A00F0F0FD48E07E480078002870
:1017500044D101207D4908607449087000207C490B
:1017600008600021754A11605160724908700120BB
:101770007449087077487849714A03C20120774953
:1017800008700020764A10605060764A764B6C49AB
:1017900003C905F00DFE0746744A754B05F0ECFBD6
:1017A000054605F041FD6449086008460068714936
:1017B0000860002070490880002406E048E06F4877
:1017C000005D4B490855601CC4B20C2CF7DB0121AD
:1017D000574804F009F90120694908705248001F70
:1017E0000068002834D16748007800287DD10021A6
:1017F000654804F0F9F80120644908700020644944
:10180000086002205F4908700021624A116051603F
:101810000020614A106050606049086060480078AC
:10182000012816D15F48C07820F0200020305D49A3
:10183000C8700846C07820F08000C870084601686B
:10184000009100798DF804000320019A00F0F8FD62
:101850004BE053480078002847D14C4908700120DC
:101860004F4908703949083108604649087000201E
:101870004A4908600021474A1160516001204A49E5
:1018800008704A494A48444AC2E9001001204649C2
:1018900008700020474908800021474A11605160C4
:1018A000304A314B3C4903C905F082FD05462F4AB9
:1018B0002F4B05F061FB074605F0B6FC3449086084
:1018C000002405E02D48005D09490855601CC4B29C
:1018D0000C2CF7DB2E480068384908600120384995
:1018E00008700121284804F07FF863E664010020B5
:1018F000DC0100207001002074010020760100202E
:101900006C01002086020020A40200207501002046
:1019100077010020A4000020780100207B01002036
:101920000E010020EC000020248121423D00002017
:10193000000C0040990000203800002048000020E2
:10194000880100200300002007010020A40122429A
:10195000F4000020D55C6E30D4A92F400200002096
:1019600058000020ECF57ABD5EAFD3406EDBB66D5B
:10197000DBB649403400002098010020CA00002056
:101980000A0000203C0000200008004098000020D1
:10199000300000204000002090010020F0000020D6
:1019A000000000200201002001000020595183693D
:1019B000181E2C40A8010020500000202C00002000
:1019C00009000020704700BFFEE700BFFEE700BF30
:1019D000FEE700BFFEE770477047704770470000A2
:1019E0000CB50020019000906C48006840F48030F5
:1019F0006A49086000BF6948006800F40030009040
:101A00000198401C0190009818B90198B0F5A06F9A
:101A1000F1D16248006800F4003010B1012000905C
:101A200001E0002000900098012843D15C48006844
:101A300040F010005A4908600846006820F0030092
:101A400008600846006840F002000860534840689B
:101A5000524948600846406848600846406840F47B
:101A6000806048600846406820F47C104860084662
:101A7000406840F4E81048600846006840F0807014
:101A8000086000BF4548006800F000700028F9D0E9
:101A90004248406820F003004049486008464068DA
:101AA00040F00200486000BF3C48406800F00C0075
:101AB0000828F9D10CBD10B5FFF792FF10BD10B585
:101AC0003648006840F00100344908600846406824
:101AD00034490840314948600846006832490840A6
:101AE0002E4908600846006820F4802008600846F7
:101AF000406820F4FE0048604FF41F008860FFF744
:101B0000DAFF4FF000602949086010BD10B50021D0
:101B100000200022214B5B6803F00C0121B1042955
:101B200006D0082928D107E0214B224C236027E06A
:101B30001F4B204C236023E0184B5B6803F47010AC
:101B4000164B5B6803F48032022303EB904022B90A
:101B5000194B4343174C23600DE0104B5B6803F4B3
:101B6000003323B1144B4343124C236003E0104B6A
:101B70004343104C236003E00D4B0E4C236000BF29
:101B800000BF064B5B68C3F303130C4CE15C094BCD
:101B90001B68CB40074C236010BD000000100240C2
:101BA000002002400000FFF8FFFFF6FE08ED00E015
:101BB00000127A00D800002000093D00DC0000205F
:101BC0007FB505460C460121084603F014F84FF096
:101BD000804003F0D9FAADF80850ADF80440002079
:101BE000ADF80A00ADF8060001A94FF0804003F0FF
:101BF0009FFB0121880704F0BDF9012211469007DF
:101C000003F00DFF1C208DF8000002208DF801006C
:101C10008DF8020001208DF80300684603F04BFAAE
:101C20000121880703F0E0FE7FBD2DE9F05F01216F
:101C3000880704F0A2F900287DD00121880704F06C
:101C4000ADF9B5480068401CB3490860B348006866
:101C5000022870D1B2480078E0B9B2480068002884
:101C600018DDB148008805F053FB804642460B461C
:101C70000020AE4905F080F90646AD4AAD4B05F0AF
:101C800097FB0446AC480CC8204605F0B9F8AA4AB0
:101C900003C21EE0A2480078D8B9A2480068002814
:101CA00017DAA148008805F033FB064632460B469A
:101CB00000209E4905F060F904469D4A9D4B05F0C1
:101CC00077FB80469C480CC8404605F0A5FC9A4A24
:101CD00003C24FF07E519948006805F0A5FE974970
:101CE00008600846006805F073FE80460022944BA9
:101CF00005F042F906460022924B05F081F80446B1
:101D00000022914B05F054FB824605F0BDFA86494E
:101D1000088001208D49086083480088441E04EB38
:101D2000D4714A1080490988481E002101F0B7FE8D
:101D30007948006800E03EE005F0D3FA044600224E
:101D40007F4B05F033FC36D8002073490860002132
:101D50004FF0804003F048FE00217D4803F044FE30
:101D600000207A4908606E4908700220794908709D
:101D70007148D0E90010784AC2E900100020774984
:101D800008706648006802280ED100206349086088
:101D90000120734908707349087040F2BB2200218A
:101DA00040F2775001F07BFE00214FF0804003F0BD
:101DB0001BFEBDE8F09F00BFFBE710B56A48008836
:101DC00020F0010068490880684800680F2804D2A4
:101DD00066480068401C6549086065480068401C0A
:101DE000634908606348007860B963480068002868
:101DF00008DD624A624B634903C905F001F8614A94
:101E000003C20EE05B48007858B95B4800680028C0
:101E100007DA5A4A5A4B5B4903C905F0EFFC594AA5
:101E200003C23F48007860B93E480068002808DDDA
:101E3000524A534B404903C904F0E2FF3E4A03C2F1
:101E40000EE03748007858B936480068002807DAAD
:101E50004A4A4B4B384903C905F0D0FC364A03C205
:101E600049480078012828D148480078012824D121
:101E70004748006847490968884219D346480078AE
:101E8000012815D10021454803F0AEFD0120394954
:101E9000087000203E490860022041490870394816
:101EA000D0E900103F4AC2E900100020374908700D
:101EB00037480068401C364908603B4800780128D4
:101EC00028D126480078012824D1384800683849AC
:101ED0000968884219D337480078012815D10021B4
:101EE0001B4803F081FD0020304908600220194999
:101EF00008701148D0E90010174AC2E9001001200B
:101F00000749087000201549087028480068401CDF
:101F10002649086010BD0000500100201C0100206F
:101F200099000020380000204601002040776B41D6
:101F3000A60A462575020A3F480000203801002005
:101F4000000024400000F03F00E095402401002004
:101F5000000C00403D000020580000200A00002036
:101F60007F0100207B010020102C0140EC000020AC
:101F7000700100209800002030000020216D61D900
:101F80008BE6643F40000020000000200900002094
:101F9000F00000202C00002001000020000800407C
:101FA0003C0000205000002003000020F40000202E
:101FB000340000200200002000B587B001211D2060
:101FC00002F00CFE0121FE4802F01DFC0121C803B5
:101FD00002F011FE4FF40060ADF8180010208DF8EB
:101FE0001B0006A9F74802F03DFB4FF4A050ADF8E6
:101FF000180048208DF81B0006A9F24802F032FBB9
:102000008020ADF8180010208DF81B0006A9EE48BE
:1020100002F028FB8021EC4802F0D3FB3820ADF819
:10202000180003208DF81A0018208DF81B0006A94F
:10203000E54802F017FB4FF40040ADF818001020FF
:102040008DF81B0003208DF81A0006A9DF4802F066
:1020500009FB4FF40041DD4802F0B1FB0020ADF870
:1020600004004FF48270ADF806000020ADF80800BF
:10207000ADF80A00ADF80C004FF40070ADF80E009A
:102080002820ADF810000020ADF812000720ADF8B0
:10209000140001A9CE4803F0ABFF0121CC4804F0A5
:1020A0004CF807B000BD00B587B00121082002F050
:1020B00095FD0121880302F09EFD4FF46040ADF8CC
:1020C000180018208DF81B0003208DF81A0006A9AF
:1020D000BD4802F0C7FA4FF48050ADF81800102048
:1020E0008DF81B0006A9B84802F0BCFA4FF48051E5
:1020F000B54802F064FB4FF40070ADF818001020F2
:102100008DF81B0003208DF81A0006A9AD4802F0D7
:10211000A9FA4FF48070ADF8180048208DF81B0024
:1021200006A9A84802F09EFA0020ADF804004FF47A
:102130008270ADF806000020ADF80800ADF80A0086
:10214000ADF80C004FF40070ADF80E002820ADF88B
:1021500010000020ADF812000720ADF8140001A90E
:102160009C4803F045FF01219A4803F0E6FF07B0C1
:1021700000BD30B589B005460C460121042002F0AF
:102180003AFD0121082002F029FD4020ADF8200091
:1021900018208DF8230003208DF8220008A98A4812
:1021A00002F060FAADF818500020ADF81400ADF858
:1021B0001A00ADF8160005A9874803F0B9F86020A9
:1021C000ADF804000120ADF80600ADF80A4000208B
:1021D000ADF80C0001A9804803F0E7F808217E481B
:1021E00003F032FD01217C4803F0FEFC09B030BD54
:1021F00030B589B005460C460121052002F0EEFC01
:102200000121082002F0F7FC0120ADF82000182081
:102210008DF8230003208DF8220008A96B4802F0F6
:1022200021FAADF818500020ADF81400ADF81A00EE
:10223000ADF8160005A9694803F07AF86020ADF8FA
:1022400004000120ADF80600ADF80A400020ADF80A
:102250000C0001A9614803F0A8F808215F4803F0C9
:10226000F3FC01215D4803F0BFFC09B030BD10B59F
:1022700086B00446ADF8104001A9564803F0B8FEF8
:102280000121544803F059FF06B010BD70B5054652
:10229000002405E0601CC4B2C82C01DD002070BD24
:1022A00002214C4803F0CDFF0028F3D029464948CD
:1022B00003F074FF002405E0601CC4B2C82C01DDEB
:1022C0000020ECE70121434803F0BBFF0028F3D0D6
:1022D000404803F065FFC0B2E1E770B50546002451
:1022E00005E0601CC4B2C82C01DD002070BD0221D5
:1022F000374803F0A6FF0028F3D02946344803F0FE
:102300004DFF002405E0601CC4B2C82C01DD002094
:10231000ECE701212E4803F094FF0028F3D02C486D
:1023200003F03EFFC0B2E1E7F7B504464CB99DF8B3
:102330000400C0F3C300C0009DF80410C90940EABE
:10234000C115012C05D19DF80500410961F35F100D
:102350000546022C16D19DF80600C0F3800161F3FA
:102360009F009DF80610C1F3C00140EAC1009DF82E
:102370000610C1F3801140EA81109DF80610C909CA
:1023800040EAC115032C15D19DF80700C0F30010D9
:1023900000019DF80710C1F3401140EA41109DF87B
:1023A0000710C1F3801140EA81109DF80710C90998
:1023B00040EAC115092C15D19DF8080010E0000075
:1023C0000002300000100140000C014000080140F4
:1023D000003C00400038004000080040000C004075
:1023E00000F007050020F749086044F08000FFF77F
:1023F0004DFF07462846FFF749FF06460A2001F031
:10240000A2FC0120F049C1F8B0010A2001F09BFCB8
:102410000020EC4908602046FFF738FF0646002000
:10242000FFF734FF06460120E749C1F8B0010A2052
:1024300001F089FCAE4201D12846FEBD0020FCE738
:10244000F7B504464CB99DF80400C0F3C300C000C2
:102450009DF80410C90940EAC115012C05D19DF869
:102460000500410961F35F100546022C16D19DF865
:102470000600C0F3800161F39F009DF80610C1F3D0
:10248000C00140EAC1009DF80610C1F3801140EA86
:1024900081109DF80610C90940EAC115032C15D119
:1024A0009DF80700C0F3001000019DF80710C1F36C
:1024B000401140EA41109DF80710C1F3801140EA35
:1024C00081109DF80710C90940EAC115092C03D1F4
:1024D0009DF8080000F007050020BC4908600A20AC
:1024E00001F031FC44F08000FFF7F7FE0746284674
:1024F000FFF7F3FE06460120B549C1F8BC010A20EA
:1025000001F021FC0020B14908602046FFF7E5FEFC
:1025100006460020FFF7E1FE06460120AC49C1F85F
:10252000BC01642001F00FFCAE4201D12846FEBD83
:102530000020FCE71CB50220012804D002280AD0A4
:10254000032818D10FE0A348407820F01F000D3079
:10255000A049487017E09F48407820F01F001030D5
:102560009C4948700FE09B48407820F01F001630CF
:102570009849487007E09748407820F01F001030D5
:102580009449487000BF00BF9248407820F0E000B6
:10259000904948700846C07820F020002030C8706C
:1025A0000846C07820F08000C8700846807820F087
:1025B000030088700846807820F00400001D8870B1
:1025C0000846807820F00800083088700846807837
:1025D00020F0400088700846807820F080008870E5
:1025E0007D48007830B101282ED0022856D003282B
:1025F00074D17EE00220012804D002280AD00328EA
:1026000018D10FE07348407820F01F00401C71493A
:10261000487017E06F48407820F01F00C01C6D49DB
:1026200048700FE06B48407820F01F00083069497F
:10263000487007E06748407820F01F00C01C6549DB
:10264000487000BF00BF86E00220012804D00228A5
:102650000AD0032818D10FE05E48407820F01F0010
:10266000801D5C49487017E05A48407820F01F00F0
:102670000A30584948700FE05648407820F01F0053
:1026800010305449487007E05248407820F01F004D
:102690000A305049487000BF00BF5CE002200128AA
:1026A00004D002280AD0032819D10FE04948407805
:1026B00020F01F000A304749487018E0454840782C
:1026C00020F01F000E304349487010E04148407828
:1026D00020F01F0013303F49487008E033E03D48C8
:1026E000407820F01F000E303A49487000BF00BF0C
:1026F00031E00220012804D002280AD0032818D192
:102700000FE03448407820F01F000D303149487008
:1027100017E03048407820F01F0010302D494870F5
:102720000FE02C48407820F01F00163029494870EF
:1027300007E02848407820F01F00103025494870F5
:1027400000BF00BF07E02348407820F01F00103092
:102750002049487000BF00BF20480078082870D288
:10276000DFE800F0040F1F405060707B19480079CB
:1027700020F00700C01C1749087101201849087093
:1027800081E01448007920F00700124908710846DA
:10279000407820F0E0008030487002201049087036
:1027A00071E00C48007920F007000A4908710846DA
:1027B000407820F0E000603048700420084908703C
:1027C00061E00000B081214200802142BC01214231
:1027D0000000214202010020040000200600002029
:1027E00068000020FE48007920F00700FC490871CD
:1027F0000846407820F0E000403048700820F94951
:10280000087040E0F648007920F00700F4490871AC
:102810000846407820F0E000203048701020F14950
:10282000087030E0EE48007920F00700EC490871AC
:102830000846407820F0E00048702020E949087000
:1028400021E015E0E648007920F00700801CE4490B
:1028500008714020E349087015E0E148007920F054
:102860000700401CDE4908718020DE4908700AE03C
:10287000DB48007920F00700401CD949087180200E
:10288000D849087000BF00BFD548016800910079A1
:102890008DF804000020019AFFF7D2FDD24908709C
:1028A000CF480168009100798DF804000120019A59
:1028B000FFF7C6FDCD490870C9480168009100794D
:1028C0008DF804000220019AFFF7BAFDC84908708C
:1028D000C3480168009100798DF804000320019A33
:1028E000FFF7AEFDC3490870BD480168009100794B
:1028F0008DF804000920019AFFF7A2FDBE49087077
:102900001CBD2DE9FC5F0220012804D002280AD05A
:10291000032818D10FE0B948407820F01F000D308F
:10292000B649487017E0B548407820F01F001030D5
:10293000B24948700FE0B148407820F01F001630CF
:10294000AE49487007E0AD48407820F01F001030D5
:10295000AA49487000BF00BFA848C07820F02000F6
:102960002030A649C8700846C07820F08000C870A2
:102970000846807820F0030088700846807820F0B0
:102980000400001D88700846807820F00800083098
:1029900088700846807820F040008870084680786B
:1029A00020F0800088709648007830B101282ED041
:1029B000022856D0032874D17EE00220012804D0DA
:1029C00002280AD0032818D10FE08C48407820F064
:1029D0001F00401C8949487017E08848407820F063
:1029E0001F00C01C854948700FE08448407820F0E3
:1029F0001F0008308149487007E08048407820F087
:102A00001F00C01C7D49487000BF00BF86E0022047
:102A1000012804D002280AD0032818D10FE07748F3
:102A2000407820F01F00801D7449487017E07348FB
:102A3000407820F01F000A30704948700FE06F485E
:102A4000407820F01F0010306C49487007E06B4858
:102A5000407820F01F000A306849487000BF00BF6E
:102A60005CE00220012804D002280AD0032819D1F2
:102A70000FE06248407820F01F000A305F4948703C
:102A800018E05E48407820F01F000E305B49487027
:102A900010E05A48407820F01F0013305749487022
:102AA00008E033E05548407820F01F000E305349CD
:102AB000487000BF00BF31E00220012804D0022886
:102AC0000AD0032818D10FE04C48407820F01F00AE
:102AD0000D304A49487017E04848407820F01F0000
:102AE0001030464948700FE04448407820F01F00FD
:102AF00016304249487007E04048407820F01F00F7
:102B000010303E49487000BF00BF07E03B484078A6
:102B100020F01F0010303949487000BF00BF39480D
:102B2000007808287CD2DFE800F0043084B5E6FDA8
:102B3000FCFB3248007920F00700C01C2F490871C7
:102B40000120314908703148006804F0E1FB044677
:102B50000D462F48006804F03BFF804642460B4676
:102B600000202C4904F008FA00222B4BCDE900018B
:102B700004F01EFC064622462B4604F019FC824651
:102B800004F082FB254908609EE11C48007920F092
:102B900007001A4908710846407820F0E0008030AC
:102BA00048700220184908701848006804F0B0FB0B
:102BB00006460F461648006804F00AFF02460B4618
:102BC000CDE900010020134904F0D6F98246002225
:102BD0004FF0804304F0ECFB804632463B4620E059
:102BE0000201002068000020F8000020F900002009
:102BF000FA000020FB000020FC000020070100205C
:102C0000050000200700002069000020700000205F
:102C100074000020000018400000F03F6400002015
:102C200026E104F0C5FB044604F02EFBC64908600B
:102C30004AE1C648007920F00700C44908710846F7
:102C4000407820F0E000603048700420C0490870EF
:102C5000C048006804F05CFB04460D46BE480068AE
:102C600004F0B6FE804642460B460020BB4904F005
:102C700083F982460022BA4B04F09AFB06462246AC
:102C80002B4604F095FBCDE9000104F0FDFAAE49B6
:102C9000086019E1AD48007920F00700AB490871E0
:102CA0000846407820F0E000403048700820A849ED
:102CB0000870A848006804F02BFB82468B46A648A3
:102CC000006804F085FE804642460B460020A3497A
:102CD00004F052F906460022A24B04F069FB0446B8
:102CE00052465B4604F064FBCDE9000104F0CCFAE7
:102CF00095490860E8E09548007920F0070093497D
:102D000008710846407820F0E0002030487010201C
:102D10008F4908708F48006804F0FAFA044602E010
:102D20007AE04DE01CE00D468B48006804F050FE50
:102D3000804642460B460020884904F01DF90646AD
:102D40000022894B04F034FB22462B46CDE90001DA
:102D500004F02EFB824604F097FA7B490860B3E04A
:102D60007A48007920F007007849087108464078D1
:102D700020F0E00048702020754908707548006810
:102D800004F0C6FA04460D467348006804F020FEBD
:102D9000064632460B460020704904F0EDF88246A4
:102DA0000022724B04F004FB804622462B4604F0BE
:102DB000FFFACDE9000104F067FA6349086083E097
:102DC0006248007920F00700801C604908714020AB
:102DD0005F4908705F48006804F09AFA04460D469F
:102DE0005D48006804F0F4FD824652460B46002020
:102DF0005A4904F0C1F8804600225D4B04F0D8FA2D
:102E0000064622462B4604F0D3FACDE9000104F031
:102E10003BFA4D49086057E04C48007920F0070024
:102E2000401C4A4908718020494908704948006897
:102E300004F06EFA04460D464748006804F0C8FDE9
:102E4000804642460B460020444904F095F88246ED
:102E50000022484B04F0ACFA064622462B4604F00A
:102E6000A7FACDE9000104F00FFA374908602BE01A
:102E70003648007920F00700401C34490871802052
:102E8000334908703348006804F042FA04460D469E
:102E90003148006804F09CFD824652460B460020F3
:102EA0002E4904F069F806460022324B04F080FAFD
:102EB000804622462B4604F07BFACDE9000104F05F
:102EC000E3F92149086000BF00BF20480168009174
:102ED00000798DF804000020019AFFF725FA2649B1
:102EE00008701A480168009100798DF804000120EB
:102EF000019AFFF719FA21490870144801680091F6
:102F000000798DF804000220019AFFF70DFA1C49A0
:102F100008700E480168009100798DF804000320C4
:102F2000019AFFF701FA17490870084801680091F3
:102F300000798DF804000920019AFFF7F5F912498C
:102F40000870BDE8FC9F000064000020070100201D
:102F5000690000207000002074000020000018406C
:102F600000001040000020400000304000004040C1
:102F70000000504000006040FD000020FE000020E6
:102F8000FF000020000100200101002008B5012100
:102F90003C2001F023FE41F20F10ADF80000482064
:102FA0008DF803006946244801F05CFB0420ADF86D
:102FB000000010208DF8030003208DF80200694600
:102FC0001E4801F04FFB4FF44070ADF80000482060
:102FD0008DF8030069461A4801F044FB4FF4604045
:102FE000ADF8000028208DF803006946124801F072
:102FF00039FB2020ADF8000010208DF803000320DD
:103000008DF8020069460C4801F02CFB00200D49A8
:1030100008600120ADF8000010208DF803000320A7
:103020008DF802006946064801F01CFB00200649A5
:10303000C1F8800108BD00000010014000140140EB
:10304000000C0140940122420080214210B586B05C
:1030500004460121052001F0C1FD0121480401F0D1
:10306000CAFD0420ADF8140003208DF816001820C6
:103070008DF8170005A9AD4801F0F4FA0820ADF865
:10308000140048208DF8170005A9A84801F0EAFAB5
:1030900026208DF8000001208DF8010000208DF819
:1030A000020001208DF80300684602F004F8019444
:1030B0000020ADF80800ADF80A00ADF80C00ADF83E
:1030C00010000C20ADF80E0001A9994801F02DFE6A
:1030D000012240F22551964801F0BFFE012194489B
:1030E00001F0AFFE06B010BD10B540F2255190487A
:1030F00001F098FF00287DD040F225518C4801F066
:1031000088FF8B4801F00EFF8A498B4A1278885459
:1031100008460078682809D187480078401C86490D
:103120000870844840788549087002E00020824990
:1031300008708148017881480078401C81426BDB2F
:103140007E480078002867D000207B4908707B48C3
:103150000078052812D17748407876498978084464
:103160007449C9780844734909790844C0B271495F
:103170004979884202D10120714908706F4800786E
:10318000072818D16B4840786A498978084469490A
:10319000C978084467490979084466494979084467
:1031A000644989790844C0B26249C979884202D128
:1031B000012063490870614800780D282CD15D48D2
:1031C00040785C49897808445A49C9780844594983
:1031D0000979084457494979084456498979084486
:1031E0005449C97908445349097A08445149497AEC
:1031F000084400E010E04F49897A08444D49C97AF3
:1032000008444C49097B0844C0B24A49497B88427A
:1032100002D101204A49087010BD70B505460E461E
:1032200000240CE000BF8021414801F0E5FE0028A9
:10323000F9D0295D3E4801F071FE601CC4B2B44271
:10324000F0DB00BF40213A4801F0D6FE0028F9D05B
:1032500070BD3848C07900F0F00080BB3548C079B7
:1032600000F00F0042F2107148433249C979090950
:1032700040F63542514300EB41102E49097A01F0E6
:103280000F0101EBC10202EB011100EB81002949A2
:10329000097A090901EB4102C2EBC11100EBC1003F
:1032A0002449497A01F00F0108442249497A090961
:1032B00001EB810100EB410000B2224908801D486A
:1032C000C0790121B1EB101F2DD11A48C07900F04F
:1032D0000F0042F2107148431649097A01F00F01BC
:1032E00001EBC10202EB011100EB81001149097AE7
:1032F000090901EB4102C2EBC11100EBC1000D490C
:10330000497A01F00F0108440A49497A090901EB99
:10331000810100EB410000B20A490880084600889C
:10332000404200B2088000207047000000080140C1
:1033300000440040720200200C0100200D0100201A
:103340000E0100201001002008B50121082001F025
:1033500045FC4FF44060ADF8000010208DF80300EC
:1033600002208DF802006946F74801F07BF9012040
:10337000F6490860F649C1F8AC0108BD10B5F2483D
:10338000001D006820F47040EF49091D08600846E0
:10339000006840F4405008600120EC49091D0860B5
:1033A000EB49C1F8A8010A2000F0CDFC0020E74954
:1033B000091D08600A2000F0C6FC0020E449C1F89D
:1033C000A80110BD10B5E048001D006820F4704051
:1033D000DD49091D08600846006840F44050086057
:1033E0000020DA490860DA49C1F8AC010A2000F08F
:1033F000AAFC0120D54908600A2000F0A4FC0120A5
:10340000D349C1F8AC0110BD10B50024CE48001D51
:10341000006820F47040CC49091D08600846006827
:1034200040F4004008600120C849091D08600A20D6
:1034300000F089FC0120C649C1F8A8010A2000F06B
:1034400082FC07E0601CC4B2FA2C03DDFFF7BAFF70
:10345000012010BDBD487C3800680028F2D1BB496E
:10346000086000BFF5E710B50020B8490860B6480D
:10347000001D006820F47040B349091D086008462B
:10348000006840F4405008600020B149C1F8AC0128
:103490000A2000F058FC0120AC4908600A2000F026
:1034A00052FC0020AA49C1F8A80110BD10B50020A7
:1034B000A6490860A448001D006820F47040A24995
:1034C000091D08600846006840F44050086001206B
:1034D0009F49C1F8AC010A2000F035FC01209B494E
:1034E00008600A2000F02FFC00209949C1F8A801CB
:1034F00010BD70B504469448001D006820F470406B
:103500009149091D08600846006840F44050086071
:1035100000208E49086000251EE0E00920B101204E
:103520008A49091D086003E000208849091D0860D8
:103530006006040E0A2000F006FC012083490860A2
:103540000A2000F000FC00208149C1F8A8010A20EF
:1035500000F0F9FB681CC5B2082DDEDB70BD70B54C
:10356000054600247848001D006820F47040764924
:10357000091D08600846006840F400400860002605
:1035800016E00020714908600A2000F0DCFB0120F1
:103590006F49C1F8A8016006040E6C487C380068C9
:1035A00008B1601CC4B20A2000F0CDFB701CC6B28A
:1035B000082EE6DB15B9FFF779FF01E0FFF753FFAF
:1035C000204670BD10B5FFF7BFFE10BD70B50446B4
:1035D0000026FFF7D3FEA020FFF78BFFFFF714FFB5
:1035E0002012FFF786FFFFF70FFF2546E11704EBD8
:1035F00011610912A4EB0121C8B2FFF77AFFFFF7AE
:1036000003FFFFF7BBFEA120FFF773FFFFF7FCFEF0
:103610000020FFF7A4FF0646FFF7D4FE304670BD3A
:1036200070B504460E46FFF7A9FEA020FFF761FF24
:10363000FFF7EAFE2012FFF75CFFFFF7E5FE2546E5
:10364000E11704EB11610912A4EB0121C8B2FFF7E5
:1036500050FFFFF7D9FE3046FFF74BFFFFF7D4FED0
:10366000FFF7B0FE072000F092FB70BD2DE9F0419E
:1036700005460E461746002409E0E20026FA02F24B
:10368000D1B22A1990B2FFF7CBFF601CC4B2BC4282
:10369000F3DBBDE8F0812DE9F04107460C4600263A
:1036A000002509E036023919491B491E88B2FFF787
:1036B0008DFF0644681CC5B2A542F3DB3046BDE869
:1036C000F08110B5FF20FFF781FF0446552C01D192
:1036D000002010BD5521FF20FFF7A2FFFF20FFF7BC
:1036E00075FF0446552C01D10020F2E70120F0E7D8
:1036F00070B506460C46154608E03046721C96B278
:10370000FFF764FF04F8010B681E85B2002DF4D1A9
:1037100070BD70B505460C46164606E02178284671
:10372000FFF77EFF681C85B2641C301EA6F1010104
:103730008EB2F3D170BDF0B504460E461D4600238F
:103740009DB100210DE00000000C0140A881214244
:1037500000802142C80026FA00F004F8010B481C42
:10376000C1B29142F6DB0020F0BD0026501E044499
:10377000002105E01B0214F801793B44481CC1B24A
:103780009142F7DB1846EFE70146012070472DE92B
:10379000FC5F4FF080400190019804F019F98046D9
:1037A00000225F4B03F0E8FB064600225D4B03F06E
:1037B000FFFD044603F0F2FA00904FF07E505A49A4
:1037C00008600846006804F003F980460022544B64
:1037D00003F0D2FB06460022544B03F011FB0446D3
:1037E0000022534B03F0E4FD824603F04DFD5149A6
:1037F00008800021504802F0F7F800204F49086087
:103800004C480088441E04EBD4714A104949098889
:10381000481E002100F00CF9009804F0D9F8804609
:1038200000223F4B03F0C4FD064600223F4B03F04D
:10383000E5FF044603F028FD1FFA80FA012241F655
:103840001F41504600F0C0F801213D4802F0CCF87D
:1038500000203C4908700120BDE8FC9F2DE9FC5F79
:103860004FF080400190019804F0B2F880460022A9
:103870002B4B03F081FB064600222A4B03F098FDF8
:10388000044603F08BFA00904FF07E502E490860FA
:103890000846006804F09CF880460022204B03F0A4
:1038A0006BFB06460022214B03F0AAFA04460022D5
:1038B0001F4B03F07DFD824603F0E6FC23490880A0
:1038C00000211D4802F090F80020214908601F489F
:1038D0000088441E04EBD4714A101C490988481E14
:1038E000002100F0DCF81B49009804F0E1F90646DD
:1038F0004FF07E5104F0A8FA054604F0B9F984B2FD
:1039000041F61F412046FEF75BF90121124802F003
:103910006BF800200B4908700120BDE8FC9F0000F7
:103920000000244000408F40340100200000F03FA0
:1039300000E0954044010020002C01404C01002093
:10394000000800407B0100203801002046010020D3
:103950005001002000002041000C00407FB50646C9
:103960000C4615460121C80201F038F9D14801F092
:103970000BFCADF80860ADF804400020ADF80A007B
:10398000ADF806008DF80C0001A9CA4801F0D0FC82
:103990000121C84802F002FB01221146C54802F08D
:1039A0003EF819208DF8000002208DF8010001205A
:1039B0008DF802008DF80300684601F07CFB294673
:1039C000BC4802F011F87FBD7FB506460C4615468F
:1039D0000121022001F00FF9B74801F0D5FBADF845
:1039E0000860ADF804400020ADF80A00ADF806000C
:1039F00001A9B14801F09CFC0121AF4802F0CEFAC8
:103A000001221146AC4802F00AF81D208DF8000092
:103A100002208DF801008DF8020001208DF80300CE
:103A2000684601F048FB2946A34801F0DDFF7FBD51
:103A300070B588B004460E4615460121042001F0F9
:103A4000DAF80020ADF81A00ADF81600ADF81460F1
:103A5000A0B2ADF8180005A9984801F069FC4FF430
:103A60008070ADF810006020ADF804000020ADF8C3
:103A70000C00ADF808000120ADF80600A8B2ADF8C2
:103A80000A0001A98D4801F090FC08218B4802F042
:103A9000DBF80121894802F0A7F808B070BD70B5C5
:103AA00088B004460E4615460121052001F096F81F
:103AB0000121082001F09FF80120ADF80000182036
:103AC0008DF8030003208DF8020069467C4800F061
:103AD000C9FD0020ADF81A00ADF81600ADF814606D
:103AE000A0B2ADF8180005A9764801F021FC4FF40A
:103AF0008070ADF810006020ADF804000020ADF833
:103B00000C00ADF808000120ADF80600A8B2ADF831
:103B10000A0001A96B4801F048FC0821694802F03D
:103B200093F80121674802F05FF808B070BD2DE9F5
:103B3000F05F61481030008820F001005E491031CC
:103B4000088061480068401C5F4908605F48006861
:103B500002287DD15E480078E0B95E480068002800
:103B600018DD5D48008803F0D3FB804642460B46D3
:103B700000205A4903F000FA0646594A594B03F00F
:103B800017FC044658480CC8204603F039F9564A39
:103B900003C21EE04E480078D8B94E48006800289D
:103BA00017DA4D48008803F0B3FB064632460B4651
:103BB00000204A4903F0E0F90446494A494B03F022
:103BC000F7FB804648480CC8404603F025FD464AAE
:103BD00003C24FF07E514548006803F025FF43497A
:103BE00008600846006803F0F3FE80460022404B60
:103BF00003F0C2F9064600223E4B03F001F90446E9
:103C000000223D4B03F0D4FB824603F03DFB3249DA
:103C100008800120394908602F480088441E04EBC1
:103C2000D4714A102C490988481E0021FFF700FF73
:103C30002548006803F055FB044600222C4B03F096
:103C4000B5FC34D800202049086000211A4800E063
:103C50002DE001F0C9FE0021184801F0C5FE00204A
:103C6000264908601A4908700220254908701E4933
:103C700003C9244A03C200202349087040F2BB2232
:103C8000002140F27750FFF7D3FE10480068022869
:103C900007D100200D49086001201C4908701C490B
:103CA00008700021044801F09FFEBDE8F09F00BFAE
:103CB000FBE70000002C0140000400400008004029
:103CC00000080140000C00404C01002018010020B9
:103CD00098000020300000204401002040776B4114
:103CE000A60A462575020A3F400000203401002044
:103CF000000024400000F03F00E095402401002037
:103D00003C0000205000002009000020800100201D
:103D10007B01002010B56FF0040001F016FA2E4868
:103D200000682E49B0FBF1F02D4908700846007874
:103D300000EB4001C1EBC0104FF6FF7101EAC0007B
:103D40002849088010BD0146254A12784A434FF0A1
:103D5000E0235A6100229A611A46126942F0010278
:103D60001A6100BF4FF0E022106900F001021AB1A1
:103D700000F48032002AF5D04FF0E022126922F0E0
:103D800001024FF0E0231A6100229A617047014658
:103D9000144A12884A434FF0E0235A6100229A6184
:103DA0001A46126942F001021A6100BF4FF0E02288
:103DB000106900F001021AB100F48032002AF5D037
:103DC0004FF0E022126922F001024FF0E0231A6165
:103DD00000229A6170470000D800002000127A008B
:103DE000580100205A01002000BF704700BFFE4A62
:103DF000128802F04002002AF9D0C2B2FA4B1B1D11
:103E00001A80704710B586B00446012144F20400C0
:103E100000F0E4FE4FF40070ADF8140003208DF8BC
:103E2000160018208DF8170005A9F04800F01AFCBC
:103E30004FF48060ADF8140004208DF8170005A938
:103E4000EA4800F00FFC25208DF8000003208DF8D3
:103E500001008DF8020001208DF80300684601F092
:103E60002AF901940020ADF80800ADF80A00ADF879
:103E70000C00ADF810000C20ADF80E0001A9DA48D6
:103E800000F053FF012240F22551D74800F0E5FF32
:103E90000121D54800F0D5FF06B010BD10B540F2A5
:103EA0002551D14801F0BEF8B8B12021CE4801F02B
:103EB000A3F8012811D1CC4801F034F8CC4908709E
:103EC00008460178CB4802780078401CC94B18702E
:103ED000C94881540020C949086010BD70B5054625
:103EE0000E46002412E000BF4021BF4801F084F8D4
:103EF0000128F9D1295DBC4801F010F800BF40212C
:103F0000B94801F079F80128F9D1641CB442EAD328
:103F100070BD30B502460B4600201AE0802115E046
:103F200000F400443CB14FF6FF7404EA400041F253
:103F30002104604003E04FF6FF7404EA4000147867
:103F40000C4014B141F22104604049100029E7D12E
:103F5000521C1C1EA3F10105EBB2DFD130BD2DE9CF
:103F6000F04F87B09146002404E0A548005DA549C4
:103F70000855641C4C45F8DBA349B1F9001040F228
:103F8000DC52501A03F0ADF98246A04AA04B02F071
:103F900037FF05469F4AA04B03F00AFA0746002266
:103FA0009E4B02F0E9FF9E4A03C29D4903C902F0FD
:103FB00081FE9C4A03C200224FF08043994903C905
:103FC00003F0F6F9984A994BCDE9020103F0F0F9B4
:103FD000974A984BCDE9040103F0EAF90746964A5F
:103FE000964B03F019FB054602F0B2FE8246002212
:103FF000934B03F003FC8B4A03C20022134689490A
:1040000003C903F0D3FA0CD800228E4B854903C9AB
:1040100003F092F905D88348D0E900108A4AC2E932
:1040200000100021894A116051608948B0F90000F0
:1040300003F057F98246874A874B02F0E1FE0746B4
:10404000744A754B03F0B4F905460022734B02F035
:1040500093FF7E4A03C27D4903C902F02BFE7F4ACB
:1040600003C27E480CC800204FF0804103F0A0F945
:1040700007467B4A7B4B03F09BF97B4A7B4BCDE9A0
:10408000000103F095F90546794A7A4B03F0C4FA2A
:1040900082460022784B03F0B1FBCDE9020102F029
:1040A00057FE4FF06632754BCDE9040103F0A6FBD5
:1040B0006A4A03C200221346684903C903F076FA2C
:1040C0000CD800225F4B654903C903F035F905D8C8
:1040D0006248D0E900106A4AC2E90010694868499C
:1040E0000CC803C903F08AFB0546674A674B03F017
:1040F0005DFA17D866480078002836D10022654B53
:10410000604903C903F052FA08D2022062490860EC
:104110006249087003206249087026E000205F4968
:10412000087022E0574856490CC803C903F066FBE3
:104130000546554A5B4B03F0FFF816D25448007809
:10414000012812D10022584B4E4903C903F0F4F85C
:1041500008D2022050490860504908700320504995
:10416000087002E000204D490870504836490CC8DC
:1041700003C903F043FB0546434A444B03F016FAD8
:1041800017D84B48007868BB00224A4B474903C9FF
:1041900003F0D2F809D202204749087004204049B0
:1041A000087002204549086095E0002042490870E7
:1041B00091E03E4824490CC803C903F01FFB0546A3
:1041C000314A384B03F0B8F80CD23948007801284E
:1041D00008D100222F4B354903C903F0E7F977D204
:1041E00002206DE077E073E00038014000080140F4
:1041F0006801002074010020860200207001002068
:10420000D6020020DC0100209801002066BD18CAFB
:10421000F925B140F1D4C853FB2109400094D140A5
:10422000A0010020B8010020D0B359F5B9A24C403C
:104230008195438B6C2B5E4091CFAF56D36CD140B0
:1042400000E855400000434088010020B0010020F4
:10425000A80100203F355EBA890DA440C0010020AE
:10426000E78C28ED0DAE71407C61325530786B40A3
:10427000ECFB2E848D53FF4080D4A94066EE58405D
:104280009001002040000020FCA9F1D24D62603F67
:104290003C00002000001440180100208001002094
:1042A0007B0100204D6260BF00804040480000203C
:1042B0003D000020000039407F0100201C0100204B
:1042C0008E4908608E49087004208E49087002E00B
:1042D00000208B490870002007B0BDE8F08F70B552
:1042E00000260025002E4DD1002429E08648005DDF
:1042F000DB280CD18449601C085CDC2807D1601CD9
:10430000C4B2C02081494855681CC5B216E07E4839
:10431000005DDB280CD17C49601C085CDD2807D1DE
:10432000601CC4B2DB2079494855681CC5B205E061
:104330007548005D75494855681CC5B2601CC4B21B
:10434000734800788442D1DBA81EC1B26F48FFF7E2
:10435000E0FD00B26F490880681E6C49095CA81E28
:104360006A4A105C41EA002000B26B490880694843
:10437000B0F90000B1F90010884202D1701CC6B239
:1043800000E00026012E7DD1002660480078062836
:1043900079D2DFE800F09103070B218D01205F49FE
:1043A00008708AE001205E49087086E001205D49BE
:1043B00008705648C078012801D15B4908705348FD
:1043C000C07840B94D48006828B95848006810B90D
:1043D00001205749087070E056480078012866D1DE
:1043E00055480078012862D1464908704748C0798D
:1043F0004649897940EA012000B250490880434883
:10440000007A4F490870414840794049097940EAAB
:10441000012000B24B4908800846B0F900004A4923
:10442000884209DB4748B0F900004942884203DC72
:1044300001203349087002E00020314908703F48EC
:10444000B0F9000010F5967F09DB3C48B0F9000098
:10445000B0F5FA7F03DC01203C49087002E000203F
:104460003A49087026480078012810D1374800786A
:1044700001280CD12A463148B0F900103148B0F972
:10448000000001E01AE017E0FFF769FD0FE01C48AB
:10449000007810B12D48007848B92D48B0F90000D7
:1044A000264908802B48B0F900002649088004E01E
:1044B00001202949087000E000BF00BF70BD70B541
:1044C00005460E4600240CE000BF8021234800F082
:1044D00093FD0028F9D0295D204800F01FFD601CE5
:1044E000C4B2B442F0DB00BF40211C4800F084FDA0
:1044F0000028F9D000201A49086070BD1C01002076
:104500007F0100207B010020A4020020D6020020B1
:104510007501002064010020660100207701002061
:1045200078010020790100207A0100201801002084
:104530007E0100200000002003000020A8010020D0
:104540007D0100209801002024FAFFFF8001002057
:1045500020000020220000207C01002000380140C3
:10456000900121420948804709480047FEE7FEE7DD
:10457000FEE7FEE7FEE7FEE7FEE7FEE7FEE7FEE713
:1045800004480549054A064B70470000BF1A000859
:104590003101000858030020580900205805002068
:1045A0005805002010B50446CC48844208D10121AA
:1045B000042000F02DFB0021042000F029FB46E040
:1045C000C748844208D10121082000F021FB0021C6
:1045D000082000F01DFB3AE0C248844208D10121C6
:1045E000102000F015FB0021102000F011FB2EE040
:1045F000BD48844208D10121202000F009FB0021A0
:10460000202000F005FB22E0B848844208D10121B7
:10461000402000F0FDFA0021402000F0F9FA16E0F9
:10462000B348844208D10121802000F0F1FA002132
:10463000802000F0EDFA0AE0AE48844207D1012163
:10464000801500F0E5FA0021A01500F0E1FA10BD98
:1046500010B50121084600F0DBFA0021012000F02E
:10466000D7FA10BD2DE9F0410246002500260020B2
:1046700000230024002791F803C00CF00F0591F8E7
:1046800003C00CF0100CBCF1000F03D091F802C075
:104690004CEA050591F800C0BCF1000F31D0146858
:1046A00000202BE04FF0010C0CFA00F3B1F800C031
:1046B0000CEA03069E4220D183004FF00F0C0CFA47
:1046C00003F7BC4305FA03FC4CEA040491F803C069
:1046D000BCF1280F06D14FF0010C0CFA00FCC2F817
:1046E00014C00AE091F803C0BCF1480F05D14FF0A7
:1046F000010C0CFA00FCC2F810C0401C0828D1D3F1
:104700001460B1F800C0BCF1FF0F34DD5468002024
:104710002EE000F1080C4FF0010808FA0CF3B1F894
:1047200000C00CEA03069E4221D183004FF00F0C1B
:104730000CFA03F7BC4305FA03FC4CEA040491F8B5
:1047400003C0BCF1280F05D100F1080C08FA0CF8E1
:10475000C2F8148091F803C0BCF1480F07D100F1F2
:10476000080C4FF0010808FA0CF8C2F81080401C41
:104770000828CED35460BDE8F0814FF6FF71018068
:10478000022181700421C1707047024600209368A5
:104790000B400BB1012000E0002070470146886803
:1047A00080B2704702460020D3680B400BB1012055
:1047B00000E0002070470146C86880B27047016180
:1047C0007047416170470AB1016100E04161704783
:1047D000C16070474FF480320A4382618161826117
:1047E00082698269704702460020434B18684FF681
:1047F0008073184040EA021008433F4B186070472E
:104800003E49C8617047F0B50A46002300240021E4
:10481000002500F00046B6F1004F02D1364EF16996
:1048200001E0354E7168C0F3034583B200F44016D1
:10483000B6F5401F08D121F070612F4E766826F042
:1048400070662D4F7E6012E000F48016B6F5801F72
:1048500006D1032606FA05F4A14341F0706106E093
:10486000460D360103FA06F6B14341F0706122B1FC
:10487000460D360103FA06F6314300F00046B6F164
:10488000004F02D11C4EF16101E01B4E7160F0BD82
:1048900030B500228B071C0F0F2303FA04F2164BCE
:1048A00008338C1053F824309343134C08348D1084
:1048B00044F8253023468C1053F824308C07240FFD
:1048C00000FA04F423430C4C08348D1044F82530CE
:1048D00030BD0A49DC310860704700000008014023
:1048E000000C01400010014000140140001801407C
:1048F000001C014000200140000001400000204257
:10490000DF48006840F00100DD4908600846406863
:10491000DC490840DA49486008460068DA4908403E
:10492000D74908600846006820F4802008600846DF
:10493000406820F4FE0048604FF41F008860704714
:10494000CF49096821F48031CD4A116011460968C8
:1049500021F480211160B0F5803F03D0B0F5802FA5
:104960000ED106E0C649096841F48031C44A11609D
:1049700007E0C349096841F4A021C14A116000E081
:1049800000BF00BF704710B5014600220023002081
:104990004A11012A02D1BA4C236806E0022A02D148
:1049A000B74C236A01E0B64C636A01F01F02012490
:1049B00094401C400CB1012000E0002010BD38B52F
:1049C000002000900024002500BF3120FFF7DBFF0E
:1049D00005460098401C00900098B0F5A06F01D0EB
:1049E000002DF2D03120FFF7CEFF08B1012400E006
:1049F0000024204638BD01460020A14A106820F05E
:104A0000F80040EAC10010607047A0490860704794
:104A1000024600209A4B586820F47C1042EA0103B9
:104A20001843974B5860704798490866704701468D
:104A30000020934A506820F00300084350607047FC
:104A40008F48406800F00C007047014600208C4AF7
:104A5000506820F0F0000843506070470146002085
:104A6000874A506820F4E060084350607047014670
:104A70000020834A506820F4605040EAC100506032
:104A8000704729B17E4A527A02437D4B5A7204E044
:104A90007B4A527A82437A4B5A7270477B49D831AB
:104AA0000860704701460020754A506820F4404075
:104AB0000843506070470021714A20321170704ADB
:104AC00082F82010012802D004280AD104E0012134
:104AD0006B4A2032117005E00521694A20321170BD
:104AE00000E000BF00BF7047694908607047644933
:104AF000096A0143624A1162704765494439086096
:104B0000704730B500210022002400235C4D6D6801
:104B100005F00C0121B1042905D0082923D105E0B5
:104B20005C4D056022E05B4D05601FE0544D6D68F3
:104B300005F47012524D6D6805F48034022505EBC2
:104B400092421CB9544D554305600BE04C4D6D68C5
:104B500005F400351DB1504D5543056002E04D4D43
:104B60005543056002E04B4D056000BF00BF444D5A
:104B70006D6805F0F0010909484D6B5C0568DD4082
:104B800045603F4D6D6805F4E061090A434D6B5C7B
:104B90004568DD4085603A4D6D6805F46051C90A8D
:104BA0003E4D6B5C4568DD40C560354D6D6805F474
:104BB0004041890B3A4D6B5CC568B5FBF3F5056167
:104BC00030BD29B12E4A526902432D4B5A6104E08F
:104BD0002B4A526982432A4B5A61704729B1284AAD
:104BE00092690243264B9A6104E0254A9269824306
:104BF000234B9A61704729B1214AD2690243204B65
:104C0000DA6104E01E4AD26982431D4BDA617047C3
:104C100029B11B4AD2680243194BDA6004E0184AF2
:104C2000D2688243164BDA60704729B1144A126980
:104C30000243134B1A6104E0114A12698243104B7C
:104C40001A61704712494039086070470F49C864BB
:104C500070470B49C87170470948406A40F080703E
:104C600007494862704701460020054A92680A4099
:104C70000AB1012000E000207047014988727047A6
:104C8000001002400000FFF8FFFFF6FE0000424265
:104C90008004424200127A0000093D00C801002051
:104CA000D801002010B50446FB48844209D10121F7
:104CB0008803FFF7ADFF00214FF48040FFF7A8FF06
:104CC00032E0F648844209D101214804FFF7ADFFE4
:104CD00000214FF40030FFF7A8FF25E0F0488442A0
:104CE00009D101218804FFF7A0FF00214FF48020A3
:104CF000FFF79BFF18E0EB48844209D10121C8046B
:104D0000FFF793FF00214FF40020FFF78EFF0BE029
:104D1000E548844208D101210805FFF786FF0021FC
:104D20004FF48010FFF781FF10BD2DE9F04786B0EA
:104D300005460E460024A24600BFA1460027B089C2
:104D400000B100BF2F462C8A4CF6FF700440F0885B
:104D500004432C82AC894EF6F3100440B0883189AC
:104D60000843718908430443AC81AC8A4FF6FF4085
:104D70000440B0890443AC8201A8FFF7C2FEC648D4
:104D8000874202D1DDF810A001E0DDF80CA0A8896F
:104D900000F4004040B10AEBCA0000EB0A10316891
:104DA0004900B0FBF1F807E00AEBCA0000EB0A107B
:104DB00031688900B0FBF1F86420B8FBF0F0040121
:104DC0002009642101FB1089A88900F4004040B14A
:104DD000322000EBC900B0FBF1F000F00700044303
:104DE00008E0322000EB09106421B0FBF1F000F084
:104DF0000F0004432C8106B0BDE8F0874FF4165134
:104E0000016000218180C18001810C21418100214C
:104E10008181704710B502460020108A4FF2FF03CF
:104E200018400B884C8823438C882343CC88234329
:104E30001843108210BD0021018041808180C18013
:104E4000704721B1828942F40052828104E0828954
:104E50004DF6FF731A4082817047F0B50346002477
:104E600000260025002040F66A17B94200D100BF95
:104E70001846C1F3421401F01F06012707FA06F590
:104E8000012C01D10C3004E0022C01D1103000E0E3
:104E900014301AB107682F43076002E00768AF4378
:104EA0000760F0BD1AB1838A0B43838202E0838AD4
:104EB0008B4383827047028A4FF6F0731A40028256
:104EC000028A0A430282704782894FF2FF731A40B6
:104ED000828182890A438281704721B1828942F0AE
:104EE0000202828104E082894FF6FD731A408281BA
:104EF0007047028A4FF6DF731A400282028A0A4321
:104F00000282704721B1028A42F48042028204E0A8
:104F1000028A4BF6FF731A4002827047C1F30802FF
:104F20008280704701468888C0F3080070478189F5
:104F300041F0010181817047028BD2B20283028B62
:104F400042EA012202837047028B02F47F4202830D
:104F5000028B0A430283704721B1828A42F0200209
:104F6000828204E0828A4FF6DF731A4082827047A1
:104F700021B1828A42F01002828204E0828A4FF6D6
:104F8000EF731A408282704721B1828A42F0080290
:104F9000828204E0828A4FF6F7731A408282704759
:104FA00021B1828942F40042828103E08289C2F306
:104FB0000E028281704721B1828A42F400628282AD
:104FC00004E0828A4FF2FF731A4082827047828A1D
:104FD0004FF6FB731A408282828A0A4382827047AC
:104FE00021B1828A42F00202828204E0828A4FF674
:104FF000FD731A408282704702460020B1F5007F9F
:1050000000D100BF13880B400BB1012000E000204D
:10501000704701F40072B2F5007F00D100BFCA43AF
:105020000280704770B5024600240023002500204E
:1050300040F66A16B14200D100BFC1F3421501F03B
:105040001F03012606FA03F3012D02D1968933408E
:1050500006E0022D02D1168A334001E0968A3340E1
:105060000C12012606FA04F41688344013B10CB170
:10507000012000E0002070BD10B50022002340F6A2
:105080006A14A14200D100BF0A1201249440A3B2C5
:10509000DC43048010BD00000038014000440040A3
:1050A00000480040004C004000500040314901439E
:1050B000314A1160704770B5002100230F22C47877
:1050C00004B32D4C246804F4E064C4F5E064210AC0
:1050D000C1F10403CA40447804FA03F1847814400F
:1050E00021430901254C0678A155047804F01F05D9
:1050F0000124AC4005786D11AD0005F1E025C5F83F
:10510000004109E0047804F01F050124AC401C4D67
:105110000678761145F8264070BD1A4A0A400243C7
:10512000154B1B1F1A60704739B1134A121D1268C4
:105130000243114B1B1D1A6006E00F4A121D126834
:1051400082430D4B1B1D1A607047042808D14FF095
:10515000E021096941F004014FF0E022116107E00C
:105160004FF0E021096921F004014FF0E0221161C4
:10517000704700000000FA050CED00E000E400E0DC
:1051800080E100E080FFFF1F10B50446FE48844226
:1051900008D10121C014FFF73BFD0021E014FFF707
:1051A00037FDC4E0B4F1804F08D101210846FFF774
:1051B0003CFD00210120FFF738FDB8E0F3488442B0
:1051C00008D101210220FFF730FD00210220FFF766
:1051D0002CFDACE0EE48844208D101210420FFF709
:1051E00024FD00210420FFF720FDA0E0E9488442CF
:1051F00008D101210820FFF718FD00210820FFF742
:1052000014FD94E0E448844208D101211020FFF706
:105210000CFD00211020FFF708FD88E0DF488442E4
:1052200008D101212020FFF700FD00212020FFF7F9
:10523000FCFC7CE0DA48844208D101214014FFF7ED
:10524000E7FC00216014FFF7E3FC70E0D5488442DE
:1052500009D10121C804FFF7DBFC00214FF4002035
:10526000FFF7D6FC63E0D048844209D1012108054C
:10527000FFF7CEFC00214FF48010FFF7C9FC56E089
:10528000CA48844209D101214805FFF7C1FC002129
:105290004FF40010FFF7BCFC49E0C548844208D138
:1052A00001214020FFF7C1FC00214020FFF7BDFC99
:1052B0003DE0C048844208D101218020FFF7B5FCC1
:1052C00000218020FFF7B1FC31E0BB48844208D1C7
:1052D00001218015FFF7A9FC0021A015FFF7A5FC0F
:1052E00025E0B648844209D101210804FFF790FC6B
:1052F00000214FF48030FFF78BFC18E0B048844267
:1053000009D101214804FFF783FC00214FF400304C
:10531000FFF77EFC0BE0AB48844208D101218804F2
:10532000FFF776FC00214FF48020FFF771FC10BDE1
:1053300000220288944B98420ED0994B98420BD091
:10534000B0F1804F08D0914B984205D0904B9842D5
:1053500002D0904B984204D14FF68F731A404B887D
:105360001A438D4B984207D08C4B984204D04FF68D
:10537000FF431A40CB881A4302808B8883850B88B1
:105380000385814B98420BD0854B984208D08B4BBC
:10539000984205D08A4B984202D08A4B984201D15C
:1053A0000B7A038601238382704770B500240022A4
:1053B0000023058C4FF6FE7635400584028C8388E9
:1053C000048B4FF68F752C40B51E2C400D882C4356
:1053D000751E2A400D892A434D882A436A4DA842EA
:1053E0000BD06F4DA84208D0744DA84205D0744D23
:1053F000A84202D0734DA84213D14FF6F7752A4048
:105400004D892A434FF6FB752A408D882A434FF673
:10541000FF652B404FF6FF552B408D892B43CD89DF
:105420002B4383800483CD888586028470BD70B54C
:10543000002400220023058C4FF6EF7635400584CA
:10544000028C8388048B48F6FF752C404FF6FF458D
:105450002C400D884FF6FF7606EA05252C434FF6C3
:10546000DF752A400D8906EA05152A434D8806EAAC
:1054700005152A43444DA84202D0494DA8421DD1EA
:105480004FF67F752A404D894FF6FF7606EA0515DF
:105490002A434FF6BF752A408D8806EA05152A4330
:1054A0004FF6FF352B404FF2FF752B408D8906EAF2
:1054B00085052B43CD8906EA85052B43838004832C
:1054C000CD880587028470BD70B5002400220023BA
:1054D000058C4FF6FF6635400584028C8388848BEB
:1054E0004FF68F752C404FF6FC752C400D882C43E1
:1054F0004FF6FF552A400D894FF6FF7606EA05253F
:105500002A434D8806EA05252A431F4DA84202D0AA
:10551000234DA8421DD14FF2FF752A404D894FF609
:10552000FF7606EA05252A434FF6FF352A408D8887
:1055300006EA05252A434EF6FF752B404DF6FF750A
:105540002B408D8906EA05152B43CD8906EA051502
:105550002B4383808483CD888587028470BD70B59A
:10556000002200230024058C4EF6FF76354005848A
:10557000038C8488828B48F6FF752A404FF6FF45DE
:105580002A400D8820E00000002C0140000400406B
:1055900000080040000C00400010004000140040D3
:1055A00000340140004C01400050014000540140D3
:1055B00000180040001C0040002000400040014056
:1055C00000440140004801404FF6FF7606EA0525F9
:1055D0002A434DF6FF752B400D8906EA05352B430E
:1055E0004D8806EA05352B43FA4DA84202D0FA4D04
:1055F000A84208D14BF6FF752C408D894FF6FF76F7
:1056000006EA85152C4384808283CD88A0F840501B
:10561000038470BD828B4FF2FF331A408283828BEA
:105620004FF6FF7303EA01231A4382837047F0B5F4
:105630000C461546002200210026078C4EF6FF7C02
:1056400007EA0C070784828B018C4FF6FF7707EA85
:10565000043640F6FF473A404FF6FF7707EA052742
:105660003A434FF6FF7707EA03373A43D94FB84238
:105670000ED0D94FB8420BD0B0F1804F08D0D74FE1
:10568000B84205D0D64FB84202D0D64FB84206D164
:105690004DF6FF77394046F48057394305E047F629
:1056A000FF57394044F48057394382830184F0BD69
:1056B000828B4FF6F3731A408283828B0A43828374
:1056C0007047F0B50C461546002200210026078CD5
:1056D0004FF6FF6C07EA0C070784828B018C4FF6AC
:1056E000FF7707EA04264FF60C773A404FF6FF772C
:1056F00007EA03172F433A43B64FB8420ED0B64FCE
:10570000B8420BD0B0F1804F08D0B44FB84205D0AA
:10571000B34FB84202D0B34FB84206D14FF6FF574D
:10572000394046F48077394305E04FF2FF5739405E
:1057300044F48077394382830184F0BD028B4FF2B9
:10574000FF331A400283028B4FF6FF7303EA0123F3
:105750001A4302837047F0B50C461546002200211B
:105760000026078C4FF6EF7C07EA0C070784028BB4
:10577000018C4FF6FF7707EA041640F6FF473A40E0
:105780004FF6FF7707EA03373A434FF6FF7707EA0A
:1057900005273A438F4FB8420ED08F4FB8420BD0F7
:1057A000B0F1804F08D08D4FB84205D08C4FB84231
:1057B00002D08C4FB84206D14FF6DF77394046F021
:1057C0001007394305E04FF65F77394044F0100782
:1057D000394302830184F0BD028B4FF6F3731A4004
:1057E0000283028B0A4302837047F0B50C461546CC
:1057F00000220021068C4FF6FE773E400684028B85
:10580000018C4FF60C7632407E1C06EA03162E43BE
:105810003243704EB0420ED06F4EB0420BD0B0F15A
:10582000804F08D06D4EB04205D06D4EB04202D0D0
:105830006C4EB04206D14FF6FD76314044F0010681
:10584000314305E04FF6F576314044F0010631432F
:1058500002830184F0BD70B505460C465D48854263
:105860000ED05D4885420BD0B5F1804F08D05B4823
:10587000854205D05A48854202D05A48854200D117
:1058800000E000BF208850B92389A288618828469B
:10589000FFF7ABFFE1882846FFF79EFF25E0208851
:1058A00004280AD12389A28861882846FFF753FF7C
:1058B000E1882846FFF742FF17E0208808280AD130
:1058C0002389A28861882846FFF7FBFEE1882846E5
:1058D000FFF7EEFE09E02389A28861882846FFF7DA
:1058E000A6FEE1882846FFF795FE70BD2DE9F04140
:1058F00005460C4600260127608808B9022600E00C
:105900000026A088012801D1022700E00127208875
:10591000A0B92389A28861882846FFF766FFE1883D
:105920002846FFF759FF23893A4631462846FFF7B4
:1059300012FFE1882846FFF701FF13E02389A288C0
:1059400061882846FFF707FFE1882846FFF7F6FE43
:1059500023893A4631462846FFF747FFE188284623
:10596000FFF73AFFBDE8F0810A884B881A438B881D
:105970001A43CB881A430B891A434B891A438B89E4
:105980001A43A0F8442070474FF6FF718180002130
:105990000180C180418001727047002101804180F7
:1059A0008180C180018141818181C1817047002155
:1059B00001804180012181800021C18001817047E7
:1059C0000021018041808180C180018141818181EC
:1059D00070470000002C01400034014000040040EA
:1059E00000080040000C004021B1028842F0010292
:1059F000028004E002884FF6FE731A40028070476E
:105A000031B1B0F8442042F40042A0F8442005E04F
:105A1000B0F84420C2F30E02A0F8442070471AB137
:105A200083890B43838102E083898B4383817047A1
:105A30008182704741EA0203A0F8483070471AB1EA
:105A400083890B43838102E083898B438381704781
:105A500001894FF6F8721140018170470A46002112
:105A600001894FF68F73194011430181704730B59A
:105A700004460D4629462046FFF7F0FF208940F0F6
:105A80000700208130BD2DE9F04104460D46164641
:105A90001F46602D06D13B46012231462046FFF7C6
:105AA0005AFE05E03B46012231462046FFF79DFEA7
:105AB00029462046FFF7D2FF208940F007002081C9
:105AC000BDE8F08130B50C4600210189C9B24FF61E
:105AD000FF7505EA0325154325432943018130BDA0
